:1000000059C1000088C1000086C1000084C1000001
:1000100082C1000080C100007EC100007CC10000E0
:100020007AC1000078C1000076C1000074C10000F0
:1000300072C1000070C100006EC100006CC1000000
:100040006AC1000068C1000066C1000064C1000010
:1000500062C1000060C100005EC100000C94CD11BF
:100060005AC100000C94F9150C942F1654C10000CD
:1000700052C1000050C100004EC100004CC1000040
:100080004AC1000048C1000046C1000044C1000050
:1000900042C1000040C100003EC1000085C3000015
:1000A0003AC1000038C1000036C1000034C1000070
:1000B00032C1000030C100002EC100002CC1000080
:1000C0002AC1000028C1000026C1000024C1000090
:1000D00022C1000020C100001EC100001CC10000A0
:1000E0001AC10000C702CE02D502DC02E3021003EF
:1000F0001003F00210031003100310031003100389
:100100001003100358025E02650277028202880221
:100110008F02940299029F02A6021003BD02B70249
:100120008806DA06A0069A06AE06B206CF060113C6
:1001300006130B1315131F139813291331133913B7
:1001400043134D1357136613701398137A138413C4
:100150008E13B913BC13AB13AF13B513F313C01342
:10016000C413CA13CE13D213D813DC13E013F31342
:10017000E613EA13EE13FFD0FFE0FFCFFF64FFD1D9
:10018000FF32380C060201FF64FFD0FFFE00000AB8
:100190000B02090C0D0E080703040100000000000B
:1001A000000000000000000000000000000000004F
:1001B000000000000000000000121110000000000C
:1001C000000000000000000000000000000000002F
:1001D00000000001021020200808102040102040DC
:1001E00080020102010804020101020408102040FB
:1001F0008080402010080402018004020180402019
:100200001008040201080402010102040810204041
:100210008001020408102040800505050507050837
:10022000080808020202020A0A0808040404040179
:10023000010101010101010303030303030303049B
:100240000707070C0C0C0C0C0C0C0C02020202062B
:10025000060606060606060B0B0B0B0B0B0B0B001C
:100260000020002300260029002C002F003200006F
:1002700001000003010601090100002200250028F9
:10028000002B002E0031003400020100000501089F
:10029000010B0100002100240027002A002D00305E
:1002A00000330001010000040107010A0100F90107
:1002B000A803611611241FBECFEFD1E2DEBFCDBF70
:1002C00000E00CBF12E0A0E0B2E0E4E4F2E300E002
:1002D0000BBF02C007900D92A035B107D9F726E0F9
:1002E000A0E5B2E001C01D92A433B207E1F712E02D
:1002F000C4EBD2E000E006C022970109FE010BBF6B
:100300000E941C19CE3AD10780E00807A9F70E9485
:10031000A5160C94201974CECF93DF93EC01262FF1
:100320004CAD6BAD0496FED62BAD992787FD90950D
:10033000820F911D8BAF81E090E0DF91CF91089506
:1003400061E087E30E94F41361E08DE30E94F413FF
:1003500061E080E30E94F41361E086E30E94F413FD
:1003600061E08CE30E94F41361E08EE20E94F413DA
:1003700061E086E20E94F41361E088E30E94F413D6
:1003800061E08EE30E94F41361E086E20E942D1486
:1003900061E088E30E942D1461E08EE30E942D1439
:1003A00060E083E00E94F41360E08EE00E94F413AA
:1003B00060E082E10E94F41361E08BE00E94F4139C
:1003C00061E086E00E94F41361E085E00E94F4138E
:1003D00061E084E00E94F41361E082E00E94F41383
:1003E00026E040E855E260E070E086E995E00C9494
:1003F0009915CF92EF920F93CF93DF931092530200
:1004000010925202C0E5D2E082E192E099838883A3
:10041000CC24CA94EE24EA9400E121E147E160E0B3
:1004200072E0CE01EFD28AE192E099838883DF9176
:10043000CF910F91EF90CF9008950F931F9386E97E
:1004400095E00E948A141816190664F486E995E06E
:100450000E94A31480939602682F86E995E00E947B
:10046000EF16EDCF83E00E94621490939502809383
:1004700094028EE00E946214909393028093920201
:1004800082E10E9462149093910280939002809185
:100490009602992787FD9095A92FB92FFC01F19716
:1004A000EE31F10508F0BCC0EE58FF4F0C94161960
:1004B0008FE892E01F910F910C94750B8FE892E0FA
:1004C0000E94750B66E070E006C08FE892E00E9423
:1004D000750B68E170E08FE892E00E94DC0C8FE819
:1004E00092E00E94750B8FE48093960299C08FE88A
:1004F00092E00E94750B68E170E08FE892E00E9444
:10050000500FEDCF00E010E028E432E440E305C0F6
:1005100000E010E028E432E441E368E534C000E0A4
:1005200010E028E432E42DC000E010E028E432E4DA
:1005300022C000E010E028EC32E441E305C000E016
:1005400010E028EC32E440E36AE51DC08FE892E059
:100550000E94750B68E170E08FE892E00E94500FF6
:100560008FE892E00E94750B8FE48093960200E082
:1005700010E22BE436E440E305C000E010E22BE497
:1005800036E441E369E58FE892E0F9D749C008EE27
:1005900013E028E730E046E050E01BC00CEC10E12F
:1005A00026E930E045E050E014C000E717E126E915
:1005B00030E044E050E00DC00CE715E126E930E002
:1005C00042E050E006C00CEC10E126E930E04BE0E0
:1005D00050E066E070E08EE892E00E94A31120C037
:1005E00060919402709195024AE050E086E995E0AE
:1005F0000E948D1760919202709193024AE050E040
:1006000086E995E00E948D176091900270919102A9
:100610004AE050E086E995E01F910F910C948D1708
:100620001F910F9108958091C60290E02091C7021A
:10063000821B910908952091C7028091C602281754
:1006400050F4E22FF0E0E853FD4F808190E02F5FFF
:100650002093C70208958FEF9FEF0895E091C7029E
:100660008091C602E81730F4F0E0E853FD4F808136
:1006700090E008958FEF9FEF08950895CF92DF9255
:10068000EF92FF920F931F93CF93DF937C01CB01E7
:100690008A012091A302222389F0EB016B01C40E91
:1006A000D51ECC15DD0561F06991D701ED91FC9166
:1006B0000190F081E02DC7011995F3CF642F4BD045
:1006C000C801DF91CF911F910F91FF90EF90DF90C4
:1006D000CF900895CF93DF931F92CDB7DEB7698394
:1006E0002091A3022223D1F02091A402203240F0D5
:1006F00021E030E0FC013383228380E090E014C0ED
:100700008091A502E82FF0E0EA55FD4F9981908392
:100710008F5F8093A5028093A40204C061E0CE01A4
:10072000019619D081E090E00F90DF91CF9108956C
:10073000FC011382128248EE53E060E070E04483D3
:1007400055836683778382E292E091838083089564
:1007500087E992E0EDCF613298F42091550324307F
:1007600089F460930A03FC018CE093E0DC012A2FFA
:10077000281B261718F421912D93F9CF80E00895B6
:1007800081E0089582E0089585ED8093BC0080911A
:10079000BC0084FDFCCF10925503089585EC809336
:1007A000BC001092550308951F920F920FB60F923E
:1007B00011240BB60F922F933F934F935F936F9338
:1007C0007F938F939F93AF93BF93EF93FF9380910A
:1007D000B900887F803609F49DC070F5883209F42D
:1007E0005CC090F4803109F455C038F4882309F4D2
:1007F000F3C0883009F44EC0F2C0883109F44DC00E
:10080000803209F45EC0EBC0803409F469C050F452
:10081000803309F456C0883309F0E1C08093E802C0
:10082000BDDFDDC0803509F44FC0883509F45DC0F7
:10083000883409F0D4C0D2C0883909F4C3C0A8F400
:10084000883709F467C038F4883609F463C0803704
:1008500009F460C0C4C0883809F4B4C0803909F410
:100860005FC0803809F0BBC05BC0803B09F482C028
:1008700038F4803A09F466C0883A09F47BC0AFC006
:10088000803C09F4A3C0883C09F4A0C0883B09F46B
:1008900086C0A5C08091540310C090912D03809113
:1008A0002C03981770F5E0912D0381E08E0F809353
:1008B0002D03F0E0E25DFC4F80818093BB0085EC6E
:1008C00082C08093E8028AC0E0912D0381E08E0F00
:1008D00080932D038091BB00F0E0E25DFC4F8083AC
:1008E00090912D0380912C036AC0E0912D0381E04B
:1008F0008E0F80932D038091BB00F0E0E25DFC4FF2
:10090000808380915303811169C081E080935203F9
:1009100084EA5DC083E0809355031092E902CFCF53
:100920008091E902803208F04DC0E091E90281E057
:100930008E0F8093E9028091BB00F0E0E651FD4FFD
:100940008083BDCF2BDF8091E902803230F4E091CB
:10095000E902F0E0E651FD4F10826091E90270E09B
:10096000E0914E03F0914F038AEE92E019951092B8
:10097000E90235C084E08093550310920B03109276
:100980000A03E0915003F0915103199580910A03F5
:10099000811105C081E080930A0310920C03E0915D
:1009A0000B0381E08E0F80930B03F0E0E45FFC4FBC
:1009B00080818093BB0090910B0380910A0398176C
:1009C00008F47DCF85E88093BC0009C085EC809356
:1009D000BC001092550303C01092E802D5DEFF91CF
:1009E000EF91BF91AF919F918F917F916F915F91A7
:1009F0004F913F912F910F900BBE0F900FBE0F9014
:100A00001F901895CF92EF920F93FC0113AE14AE86
:100A100015AE04965AD40F91EF90CF9008950F938E
:100A2000FC010150040F84A996A9941718F0081727
:100A300028F402C0081750F0041740F42150260F84
:100A400083A995A9961720F4281720F480E007C001
:100A5000281720F481E0261710F0F8CF81E00F91DD
:100A60000895DB011496ED91FC91159720E030E09C
:100A700061E01994DB011496ED91FC91159720E04B
:100A800030E063E01994DB011496ED91FC91159729
:100A900020E030E040E064E01994DB011496ED9131
:100AA000FC91159720E030E041E064E01994DB010F
:100AB0001496ED91FC91159720E030E062E01994D6
:100AC000DB011496ED91FC91159720E030E065E094
:100AD0001994DB011496ED91FC91159766E0199439
:100AE000AF92BF92CF92DF92EF92FF920F931F933C
:100AF000CF93DF931F92CDB7DEB75C018B017A01F4
:100B000080E0F7014491811108C04F3FA1F1B80185
:100B1000C501D6DF811128C033C04F3FC1F34E3F1E
:100B200089F1403F08F5403E28F04F70B801C501FB
:100B3000BEDF1AC0403D28F04F70B801C5019ADFF2
:100B400013C0403C98F0B801C50149839CDF49813E
:100B50004295407F4E5FC42ED12CC60135D1B801DD
:100B6000C5019BDFC60130D180E006C047FDFCCF48
:100B7000842F90E0F8CF81E0FFEFEF1AFF0AC1CF9A
:100B800080E001C081E00F90DF91CF911F910F9124
:100B9000FF90EF90DF90CF90BF90AF900895860FB9
:100BA000911DFC0183A18F3F19F0642F0C942D142B
:100BB0000895EF92FF920F931F93CF93DF937C01E1
:100BC000C0E0D0E087010C0F1D1FF80183A18F3F0B
:100BD00041F061E00E94F41361E0F80183A10E94FA
:100BE0002D142196CD30D10569F7DF91CF911F915A
:100BF0000F91FF90EF90089590E0FC01E75EFD4FAC
:100C0000249130E0220F331F27583D4FF9012591E1
:100C10003491309359032093580370E0FB01E75E51
:100C2000FD4F249130E0220F331F27583D4FF9012B
:100C3000259134913093570320935603FC01ED52D4
:100C4000FE4F849180935D03FB01ED52FE4F649152
:100C500060935B03609560935A03809580935C0377
:100C6000089520915D0390915C0350915B03609126
:100C70005A03A0915803B0915903E0915603F091A3
:100C800057033FB730933306F8943C91322B4C9185
:100C9000492398E087FF02C03C9301C04C93880F22
:100CA0002081262320832081252B2083915091F7BA
:100CB000809133068FBF0895CF93C62F811102C054
:100CC00088EF03C0813011F48AEFCBDF8C2F807F57
:100CD000C8DF8C2F8295807FC4DF80D07FD07ED00C
:100CE000CF917CC0DF92EF92FF920F931F93CF932F
:100CF000DF93EC01D42E7901062F10E0F801319733
:100D0000E730F10508F057C0E057FF4F0C94161973
:100D100050DF40E062E0CE0142DF41E064E0CE011E
:100D20003EDF40E065E0CE013ADF6FA188A564DFD9
:100D30001EA241C08BA18F3F09F43DC060E004C0FA
:100D4000411105C040E062E0CE0129DF34C041E03E
:100D500062E025DF6FA188A54FDF2DC0642F8EA133
:100D6000ABDF29C08EA1811102C088EF03C08130A2
:100D700011F48AEF76DFDD2069F0F7018081807F52
:100D800070DFF70181917F018295807F6ADFDA94BD
:100D900025D0F1CF23D022D021D020D00CC0DD200F
:100DA00051F0F70164918EA187DFFFEFEF1AFF0A80
:100DB000DA94F5CF4EA381E0DF91CF911F910F918F
:100DC000FF90EF90DF9008952EE93FE0009729F023
:100DD000F9013197F1F70197F9CF089588E290E092
:100DE0000197F1F708959F92AF92BF92CF92DF9251
:100DF000EF92FF920F931F93CF93DF938C01EB0140
:100E0000A42E69018AE04817A1F0E5E14E1349C01C
:100E1000EA80FB8040E0C8014ADE41E0BE01C80133
:100E200029DEF701B280E680F78088E0982E9B0CDF
:100E300009C043E0C80115DE46E751E0BE01C80124
:100E40004FDE2FC040E0BE01C80131DE4EE3BE01DF
:100E5000C80136DEFFE1FB1538F04B2D4068BE01BE
:100E6000C8012EDE40E807C040EE4B0D4068BE01D1
:100E7000C80126DE48E8BE01C80122DE41E0BE010D
:100E8000C80115DE970140E1BE01C80122DE80E104
:100E9000E80EF11CB394B910D5CF40E0BE01C801F3
:100EA000E9DD96014A2DBE01C801DF91CF911F9166
:100EB0000F91FF90EF90DF90CF90BF90AF909F90F9
:100EC0001CC3FC01E60FF11D849190E0982F882748
:100ED0003196E4918E0F911D0895FC01849108953F
:100EE000FCDF882311F0823011F486E0089583E05E
:100EF000089580E0089566E0E4CF68E0E2CF0A96C6
:100F0000FC01849108950B96FC0184910895BF9291
:100F1000CF92DF92EF92FF920F931F93CF93DF93C5
:100F2000EC01E62E0C811D81C801D7DFF82E8C81E3
:100F30009D81D6DFB82E21E0F21619F0CC24CA9498
:100F400002C05FE0C52E8C819D81D9DFF82E8C8197
:100F50009D81D9DFD82E8C819D81CFDFE0E6EE1513
:100F600038F4009729F0080F191F41E6F42E0FC03E
:100F70008C819D81C0DFF0E4FE1538F4009729F0E4
:100F8000080F191F31E4F32E02C00F5E1F4FDE144D
:100F900040F4188A1B8A1C8A198A1A8A80E090E019
:100FA0004FC0DF14B0F32B2D30E0F80184918F3F58
:100FB00019F40F5F1F4F3FC0FE1035C08C819D811B
:100FC0008CDF98012F5F3F4FF801882311F08230AA
:100FD00091F484918B8BF90124912C8BF801339639
:100FE000E491E88BF8013496E491E98BF8013596A9
:100FF000E491EA8B16C09491892F8F7082508A8B6E
:1010000092959F70998BF9012491822F8F708C8B10
:1010100022952F702B8BF8013296E491E295EF70B8
:10102000E88BC8010DC0F8013296E491EC210E0F57
:10103000111D020F131FFD1409F4ABCFF394B5CFAC
:10104000DF91CF911F910F91FF90EF90DF90CF90A4
:10105000BF9008954F925F927F928F929F92AF922E
:10106000BF92CF92DF92EF92FF920F931F93CF9395
:10107000DF931F92CDB7DEB72C01162F742E622F8F
:1010800046DF6C01009709F43BC0F2018481958131
:1010900027DFF82EF201838804899188910E8289D6
:1010A000781A172D101B282D412F692DC201B7DC8E
:1010B000882319F1CF0CD11CF7E08F0E869486940B
:1010C0008694A82CB12C1715C1F0392D76018E2DE0
:1010D0008C19881570F4F701049120E0412F632FDB
:1010E000C20139831BD1FFEFEF1AFF0A3981385F44
:1010F000EECFCA0CDB1C1F5FE6CFF201808901C076
:1011000080E00F90DF91CF911F910F91FF90EF90B2
:10111000DF90CF90BF90AF909F908F907F905F9027
:101120004F9008950F931F93CF93DF9300D0CDB7C7
:10113000DEB78C01DC015596ED91FC9156972B831F
:101140004A83698319954A81480F2B816981C801B7
:101150000F900F900F90DF91CF911F910F917ACF49
:1011600029E737E0FC01368B258B08951F93CF9339
:10117000DF93EC011D821C821F821E82198681E092
:10118000888782E28A871F861E8680E090E02FEFA4
:10119000FE01E80FF91F23A301968E309105C1F7D8
:1011A00011E018A3CE01DCDF1F8B188E198E80E4AE
:1011B0008A8F1B8E8EEB9AE09AAB89ABDF91CF9131
:1011C0001F910895DB01ED91FC911994EF92FF922C
:1011D0001F93CF93DF931F921F92CDB7DEB77C0191
:1011E000DC01D196ED91FC91D29782E069837A83FC
:1011F000199520E030E04AE069817A81C701E2DF99
:10120000182FD701D196ED91FC91D29783E01995D3
:10121000D701D196ED91FC91D29780E01995812F5D
:101220000F900F90DF91CF911F91FF90EF90089555
:10123000CF93DF931F92CDB7DEB79E012F5F3F4F55
:1012400046E4C0DF89810F90DF91CF910895CF935D
:10125000DF931F92CDB7DEB79E012F5F3F4F47E46C
:10126000B1DF89810F90DF91CF91089520E030E0C8
:1012700048E4A8CFCF93DF93EC016A817B81D8DF6C
:1012800088836A817B81CE01E2DF89836A817B81E9
:10129000CE01ECDF8B879E012D5C3F4F6A817B8105
:1012A00047E1CE01DF91CF918DCFCF93DF93EC015A
:1012B0006A817B818BDF882321F0CE01DBDF81E037
:1012C00001C080E0DF91CF9108958F929F92AF92FD
:1012D000BF92CF92EF920F93CF93DF931F921F9203
:1012E000CDB7DEB74C015B012A8349833FDFF401B0
:1012F000B382A282498147A32A8120A705A3E4A241
:10130000C3A2C4010F900F90DF91CF910F91EF9086
:10131000CF90BF90AF909F908F90C7CF0F93FC015D
:1013200082819381648F458F278F068F9F01245E72
:101330003F4F4BE3BC01CF010F9144CFFC01128220
:1013400080818150838314820895FC0120818281F1
:10135000820F82839181891760F484818F5F8483F7
:101360008381820F891710F08FEF890F838381E0CB
:10137000089580E00895DC011696ED91FC91179791
:1013800015968C919F01280F311DC9011192E81704
:10139000F907E1F70895FC0191E08381861708F4CD
:1013A00090E021E0461708F020E0322F392B81E051
:1013B0005281451708F480E083239223892B0895F6
:1013C000DC01FB01108212968C9112978183159695
:1013D0008C9115978150828313968C918383089505
:1013E000FB0141812381213029F0233031F468EF62
:1013F000640F04C0642F485F01C0642FCCCFDC01B0
:101400001696ED91FC91179715968C9115978695E8
:101410008695869512969C91491B489F402D1124D4
:10142000E40FF11D362F377080E890E002C09595EB
:1014300087953A95E2F7669566956695E60FF11DF4
:101440003081222311F0832B02C080958323808377
:101450000895FB014181DC0112962C9112974217ED
:1014600060F013962C911397241738F0608115962D
:101470002C91621710F42481C2CF0895CF92DF928D
:10148000FF920F931F93CF93DF931F921F92CDB7BD
:10149000DEB78C016B01FB01F2808381813039F072
:1014A00070F0823039F0833041F020E001C021E05B
:1014B00030E007C020E03FEF04C02FEFF9CF20E07D
:1014C00031E0F7FE07C0B601C80129833A83C1DFC6
:1014D0003A812981F6018081830F80838181820F87
:1014E0008183FF0C71F70F900F90DF91CF911F91C7
:1014F0000F91FF90DF90CF9008950F931F93CF939C
:10150000DF938901FB01C281D3814233D9F058F4C2
:101510004531E1F0473109F1443141F5CE012BDF8E
:10152000CE010CDF23C04634E1F04734E1F04B3309
:10153000E9F4B901CE0154DF8823C1F0B801CE012E
:101540009DDF14C0B901CE0184DF10C0CE01FDDEE5
:10155000882371F0CE010FDF09C0B901CE0130DF61
:1015600005C08D8101C08981F801808381E001C0BF
:1015700080E0DF91CF911F910F9108950895BF9260
:10158000CF92DF92EF92FF920F931F93CF93DF934F
:10159000B42E680179016835A9F486E390E0909350
:1015A0008B0580938A0587E390E09093890580936B
:1015B00088056091800570918105809182059091E8
:1015C000830516C06935E9F48CE390E090938B05B0
:1015D00080938A058DE390E0909389058093880538
:1015E00060918405709185058091860590918705AD
:1015F0000E940D1870937B0560937A0586E490E055
:101600001EC06A3501F58EE290E090938B058093C1
:101610008A0580E390E09093890580938805609126
:101620007C0570917D0580917E0590917F050E94DB
:101630000D1870937B0560937A0589E190E0909393
:10164000DF038093DE0381E3B81208C061E080917C
:1016500088050E942D14C0E0D0E026C080E3B812B7
:10166000FACF60E0F4CF80E3B8122CC080917A0505
:1016700090917B05019690937B0580937A0561E0BC
:1016800080918A050E942D148091DE039091DF03E2
:1016900028D760E080918A050E942D148091DE0396
:1016A0009091DF031ED72196BE01882777FD809594
:1016B000982F0E944018A70196010E94091887FDE3
:1016C000D2CF09C081E3B812DACF80917A05909128
:1016D0007B050197D0CFDF91CF911F910F91FF90A4
:1016E000EF90DF90CF90BF900895CF92DF92EF926E
:1016F000FF920F931F93CF93DF93EC0186E390E06B
:1017000090938B0580938A0587E390E090938905F9
:101710008093880583E00E9462148C018EE00E9411
:1017200062146C0182E10E9462147C0161E080918C
:1017300088050E942D1401301105D9F483E00E9420
:1017400062148C0160E086E20E942D1461E08091B9
:101750008A050E942D1486E490E0C3D660E0809153
:101760008A050E942D1486E490E0BBD661E086E2F3
:10177000E0CF00E010E02AE733E440E368E5CE0183
:10178000FEDE8CE390E090938B0580938A058DE3D9
:1017900090E0909389058093880561E00E942D1464
:1017A00060E088E30E942D14CA94CD28A9F48EE04D
:1017B0000E9462146C0161E080918A050E942D14E0
:1017C00086E490E08ED660E080918A050E942D1418
:1017D00086E490E086D6E8CF61E088E30E942D148D
:1017E00000E010E02FEA33E440E369E5CE01C7DE14
:1017F0008EE290E090938B0580938A0580E390E0E1
:10180000909389058093880561E00E942D1460E023
:101810008EE30E942D14EA94EF28A9F482E10E943D
:1018200062147C0161E080918A050E942D1489E197
:1018300090E057D660E080918A050E942D1489E1DE
:1018400090E04FD6E8CF61E08EE30E942D14109215
:101850007C0510927D0510927E0510927F0520E098
:1018600030EE4BEA57E460917C0570917D058091E4
:101870007E0590917F050E94091887FF09C000E04E
:1018800010E020E83FE341E36AE5CE0178DEE7CFF0
:1018900010928005109281051092820510928305A6
:1018A0001092840510928505109286051092870586
:1018B000DF91CF911F910F91FF90EF90DF90CF902C
:1018C0000895CF92DF92EF92FF920F931F93CF93E1
:1018D000DF93EC018A01882777FD8095982F0E947D
:1018E00040189B01AC016091800570918105809149
:1018F0008205909183050E94A4170E940D18C09044
:101900008405D0908505E0908605F0908705161631
:10191000170654F4882777FD8095982F0E94401869
:101920008B019C0141E30FC06115710571F0719548
:1019300061957109882777FD8095982F0E9440183E
:101940008B019C0140E368E52CC0B801882777FD36
:101950008095982F0E9440189B01AC01C701B601E9
:101960000E94A4170E940D181616170654F4882713
:1019700077FD8095982F0E9440188B019C0141E3D0
:101980000FC06115710579F071956195710988270E
:1019900077FD8095982F0E9440188B019C0140E3B1
:1019A00069E5CE01ECDDDF91CF911F910F91FF90A2
:1019B000EF90DF90CF9008952F923F924F925F92D9
:1019C0006F927F928F929F92AF92BF92CF92DF924F
:1019D000EF92FF920F931F93CF93DF9300D01F924C
:1019E000CDB7DEB72C013B016630710509F074C03C
:1019F00080E99AE19093F9038093F8038AE593E2F2
:101A00009093F7038093F60380E89CE09093F503AE
:101A10008093F40383E090E09093F3038093F203C8
:101A200082E090E09093F1038093F00385E993E1E5
:101A30009093EF038093EE038BE099E19093ED0395
:101A40008093EC038DE795E19093EB038093EA0399
:101A500082EA9AE19093E9038093E8038FEA96E0A3
:101A60009093E7038093E60382EA99E09093E5037D
:101A70008093E40388E897E09093E3038093E20384
:101A800080E599E09093E1038093E0038090F00378
:101A90009090F103E091F203F091F303FA83E9836C
:101AA0002090F8033090F9030091F4031091F503AE
:101AB0005F01AA0CBB1CAA0CBB1CCC24DD24C01AE1
:101AC000D10AA091F603B091F7038AEF93E09C83CB
:101AD0008B8360E070E058C068317105B9F68AE622
:101AE00098E19093F9038093F8038CE195E2909349
:101AF000F7038093F60388E096E09093F5038093D4
:101B0000F40386E090E09093F3038093F20384E083
:101B100090E09093F1038093F00385E993E1909333
:101B2000EF038093EE0384E496E19093ED038093BA
:101B3000EC0384E991E19093EB038093EA0380E75F
:101B400097E19093E9038093E8038FEA96E09093FE
:101B5000E7038093E60380EB94E09093E5038093A2
:101B6000E40380EC93E09093E3038093E20386EA3E
:101B700094E088CF6F5F7F4F8B819C818A0D9B1D86
:101B80009C838B83AC0DBD1D68157905D4F4C10110
:101B900040E050E020E030E0E981FA812E173F0775
:101BA0004CF7EB80FC80E40EF51EF70191838083F7
:101BB000B383A2832F5F3F4F800F911F4C5F5F4F16
:101BC000EBCF42E553E064E873E0C2017ADE0091B6
:101BD000EE031091EF0328E730E04BE050E0B30153
:101BE0008CE895E0B0D30091EC031091ED0328E769
:101BF00030E042E050E0B3018CE895E0A4D39AEFE6
:101C0000C92E93E0D92EE12CF12CE614F7040CF048
:101C10004AC0F6014281538160817181C20151DE67
:101C200020E030EF42E556E460917C0570917D053F
:101C300080917E0590917F050E94F01818164CF453
:101C400000E010E020E83FE340E36AE5C20197DCF2
:101C5000E7CF08E813E12FEF30E046E050E0B301B2
:101C60008CE895E070D320E030EE4BEA57E46091C9
:101C70007C0570917D0580917E0590917F050E9485
:101C8000091887FF09C000E010E020E83FE341E3C6
:101C90006AE5C20174DCE7CFFFEFEF1AFF0A84E0C8
:101CA000C80ED11CB2CF42E553E064E873E0C20134
:101CB00008DE0091EC031091ED0328E730E042E0EC
:101CC00050E0B3018CE895E03ED308E813E12FEF34
:101CD00030E046E050E0B3018CE895E034D3409129
:101CE000FC035091FD036091FA037091FB03C20164
:101CF000E8DD20E038EB48E857E460917C0570911E
:101D00007D0580917E0590917F050E94F018181640
:101D10004CF400E010E020E83FE340E36AE5C20154
:101D20002EDCE7CF0091E8031091E90328E730E0CB
:101D300044E050E0B3018CE895E005D320E030EEBC
:101D40004BEA57E460917C0570917D0580917E059A
:101D500090917F050E94091887FF09C000E010E0FC
:101D600020E83FE341E36AE5C20109DCE7CF8EEFFB
:101D7000A82E83E0B82EE12CF12C630191E0C91A62
:101D8000D108EC14FD040CF04CC0EFEFEE1AFE0A83
:101D9000F5014281538160817181C20192DD20E0B1
:101DA00038EB48E857E460917C0570917D0580919F
:101DB0007E0590917F050E94F01818164CF400E003
:101DC00010E020E83FE340E36AE5C201D8DBE7CF5B
:101DD0000091E0031091E10328E730E044E050E097
:101DE000B3018CE895E0AFD220E030EE4BEA57E447
:101DF00060917C0570917D0580917E0590917F05B5
:101E00000E94091887FF09C000E010E020E83FE3C6
:101E100041E36AE5C201B3DBE7CFF4E0AF0EB11CEA
:101E2000B0CF42E553E064E873E0C2014ADD0091BF
:101E3000EE031091EF0328E730E04BE050E0B301F0
:101E40008CE895E080D20091EC031091ED0328E737
:101E500030E042E050E0B3018CE895E074D208E84D
:101E600013E12FEF30E046E050E0B3018CE895E05D
:101E70006AD20F900F900F900F90DF91CF911F912A
:101E80000F91FF90EF90DF90CF90BF90AF909F9019
:101E90008F907F906F905F904F903F902F9008951C
:101EA0002F923F924F925F926F927F928F929F926A
:101EB000AF92BF92CF92DF92EF92FF920F931F9358
:101EC000CF93DF9300D01F92CDB7DEB73C012B013B
:101ED0006630710509F074C080E99AE19093F903C6
:101EE0008093F8038AE593E29093F7038093F603D7
:101EF00080E89CE09093F5038093F40383E090E006
:101F00009093F3038093F20382E090E09093F103C7
:101F10008093F00385E993E19093EF038093EE03C0
:101F20008BE099E19093ED038093EC038DE795E1CD
:101F30009093EB038093EA0382EA9AE19093E9039A
:101F40008093E8038FEA96E09093E7038093E6039B
:101F500082EA99E09093E5038093E40388E897E0B0
:101F60009093E3038093E20380E599E09093E1038B
:101F70008093E0038090F0039090F103E091F203EE
:101F8000F091F303FA83E9832090F8033090F9038A
:101F90000091F4031091F5035F01AA0CBB1CAA0C7D
:101FA000BB1CCC24DD24C01AD10AA091F603B09149
:101FB000F7038AEF93E09C838B8360E070E058C066
:101FC00068317105B9F68AE698E19093F903809338
:101FD000F8038CE195E29093F7038093F60388E091
:101FE00096E09093F5038093F40383E090E0909360
:101FF000F3038093F20384E090E09093F1038093E5
:10200000F00385E993E19093EF038093EE0384E47A
:1020100096E19093ED038093EC0384E991E1909332
:10202000EB038093EA0380E797E19093E9038093C1
:10203000E8038FEA96E09093E7038093E60380EB52
:1020400094E09093E5038093E40380EC93E0909315
:10205000E3038093E2038CED95E088CF6F5F7F4FC1
:102060008B819C818A0D9B1D9C838B83AC0DBD1D38
:1020700068157905D4F4C10140E050E020E030E07B
:10208000E981FA812E173F074CF7EB80FC80E40EC4
:10209000F51EF70191838083B383A2832F5F3F4FA7
:1020A000800F911F4C5F5F4FEBCF4091FC0350912D
:1020B000FD036091FA037091FB03C30102DC009100
:1020C000E8031091E90328E730E044E050E0B20172
:1020D0008CE895E038D16EEFE62E63E0F62EF7013E
:1020E0004281538160817181C301EBDB20E038EBD9
:1020F00048E857E460917C0570917D0580917E05EC
:1021000090917F050E94F01818164CF400E010E042
:1021100020E83FE340E36AE5C30131DAE7CF00910D
:10212000E0031091E10317FF02C00F5F1F4F1595E9
:10213000079528E730E044E050E0B2018CE895E0F4
:1021400002D120E030EE4BEA57E460917C057091BB
:102150007D0580917E0590917F055BD787FF09C043
:1021600000E010E020E83FE341E36AE5C30107DA5D
:10217000E8CFF4E0EF0EF11C8AE2E81684E0F806FE
:1021800009F0ADCF60E67AEE80E090E073D14AEFDF
:10219000E42E43E0F42EF701428153816081718186
:1021A000C3018FDB20E030EF42E556E460917C050F
:1021B00070917D0580917E0590917F050E94F018B9
:1021C00018164CF400E010E020E83FE340E36AE535
:1021D000C301D5D9E7CF08E813E12FEF30E046E09F
:1021E00050E0B2018CE895E0AED020E030EE4BEA52
:1021F00057E460917C0570917D0580917E059091FA
:102200007F0507D787FF09C000E010E020E83FE323
:1022100041E36AE5C301B3D9E8CFF4E0EF0EF11C66
:102220008AE2E81684E0F80609F0B5CF42E553E00B
:1022300064E873E0C30145DB60E67AEE80E090E09D
:1022400019D14091FC035091FD036091FA03709104
:10225000FB03C30136DB0091E8031091E90328E793
:1022600030E044E050E0B2018CE895E06CD03EEF05
:10227000E32E33E0F32EF7014281538160817181B7
:10228000C3011FDB20E038EB48E857E460917C0590
:1022900070917D0580917E0590917F05A1D71816DC
:1022A0004CF400E010E020E83FE340E36AE5C301BE
:1022B00066D9E8CF0091E0031091E10328E730E010
:1022C00044E050E0B2018CE895E03DD020E030EEF3
:1022D0004BEA57E460917C0570917D0580917E0505
:1022E00090917F0596D687FF09C000E010E020E8B6
:1022F0003FE341E36AE5C30142D9E8CFF4E0EF0EE2
:10230000F11C8AE2E81684E0F80609F0B4CF42E551
:1023100053E064E873E0C3010F900F900F900F90AB
:10232000DF91CF911F910F91FF90EF90DF90CF90B1
:10233000BF90AF909F908F907F906F905F904F90E5
:102340003F902F90BECA0F931F93CF93DF931F929E
:10235000CDB7DEB766307105A1F4B901842F49838A
:102360002DD1B801882777FD8095982F83D060E024
:1023700070E04981842F0F90DF91CF911F910F91D1
:102380001DC16831710549F36036710531F30F9055
:10239000DF91CF911F910F9108951F920F920FB669
:1023A0000F9211242F933F938F939F93AF93BF93DB
:1023B00080918E0590918F05A0919005B091910527
:1023C00030918D0523E0230F2D3720F40196A11DB8
:1023D000B11D05C026E8230F0296A11DB11D209353
:1023E0008D0580938E0590938F05A0939005B093F3
:1023F00091058091920590919305A0919405B091DB
:1024000095050196A11DB11D8093920590939305AA
:10241000A0939405B0939505BF91AF919F918F9133
:102420003F912F910F900FBE0F901F9018953FB7BF
:10243000F8948091920590919305A0919405B091A4
:10244000950526B5A89B05C02F3F19F00196A11D43
:10245000B11D3FBF6627782F892F9A2F620F711DFC
:10246000811D911D42E0660F771F881F991F4A95B5
:10247000D1F708958F929F92AF92BF92CF92DF9241
:10248000EF92FF926B017C01D2DF4B015C01C11422
:10249000D104E104F104E1F056D5C9DF68197909E6
:1024A0008A099B09683E73408105910580F321E00C
:1024B000C21AD108E108F10888EE880E83E0981E60
:1024C000A11CB11CC114D104E104F10431F7DFCF28
:1024D000FF90EF90DF90CF90BF90AF909F908F9044
:1024E00008958230910538F0880F991F880F991F41
:1024F00005970197F1F70895789484B5826084BDBB
:1025000084B5816084BD85B5826085BD85B58160F7
:1025100085BDEEE6F0E0808181608083E1E8F0E057
:102520001082808182608083808181608083E0E886
:10253000F0E0808181608083E1EBF0E08081846065
:102540008083E0EBF0E0808181608083E1E9F0E06E
:10255000808182608083808181608083E0E9F0E017
:10256000808181608083E1EAF0E080818260808305
:10257000808181608083E0EAF0E0808181608083F7
:10258000E1E2F1E0808182608083808181608083EC
:10259000E0E2F1E0808181608083EAE7F0E0808121
:1025A0008460808380818260808380818160808379
:1025B0008081806880831092C10008951F93CF931B
:1025C000DF93182FEB0161E00FD1209711F460E049
:1025D00004C0CF3FD10531F461E0812FDF91CF916D
:1025E0001F913BC1E12FF0E0E357FE4F449150E0D3
:1025F000FA013197E231F10508F09AC0E956FF4F30
:1026000015C684B5806884BDC7BD97C084B5806297
:1026100084BDC8BD92C08091800080688093800096
:10262000D0938900C093880088C080918000806228
:1026300080938000D0938B00C0938A007EC08091ED
:102640008000886080938000D0938D00C0938C00C0
:1026500074C08091B00080688093B000C093B300D4
:102660006CC08091B00080628093B000C093B400D1
:1026700064C080919000806880939000D09399000E
:10268000C09398005AC0809190008062809390001F
:10269000D0939B00C0939A0050C0809190008860B6
:1026A00080939000D0939D00C0939C0046C0809181
:1026B000A00080688093A0008091A0008F7B809311
:1026C000A000D093A900C093A80037C08091A000BB
:1026D00080628093A000D093AB00C093AA002DC06D
:1026E0008091A00088608093A000D093AD00C0933B
:1026F000AC0023C080912001806880932001D0939A
:102700002901C093280119C0809120018062809323
:102710002001D0932B01C0932A010FC0809120018A
:10272000886080932001D0932D01C0932C0105C0B7
:10273000C038D1050CF050CF4ACFDF91CF911F9117
:10274000089590E0FC013197E231F10508F04BC0AB
:10275000E755FF4F6BC5809180008F7703C0809154
:1027600080008F7D80938000089580918000877F16
:10277000F9CF84B58F7702C084B58F7D84BD08956D
:102780008091B0008F7703C08091B0008F7D8093DF
:10279000B0000895809190008F7707C080919000DD
:1027A0008F7D03C080919000877F80939000089573
:1027B0008091A0008F7707C08091A0008F7D03C01B
:1027C0008091A000877F8093A000089580912001D0
:1027D0008F7707C0809120018F7D03C080912001F9
:1027E000877F809320010895CF93DF9390E0FC01D1
:1027F000ED52FE4F2491FC01E75EFD4F849188234A
:1028000049F190E0880F991FFC01ED56FD4FA5910D
:10281000B49187589D4FFC01C591D4919FB7611128
:1028200008C0F8948C91209582238C938881822310
:102830000AC0623051F4F8948C91322F3095832382
:102840008C938881822B888304C0F8948C91822B8E
:102850008C939FBFDF91CF9108950F931F93CF93D8
:10286000DF931F92CDB7DEB7282F30E0F901E35791
:10287000FE4F8491F901ED52FE4F1491F901E75E8C
:10288000FD4F04910023C1F0882319F0698359DFBB
:102890006981E02FF0E0EE0FFF1FE758FD4FA59193
:1028A000B4919FB7F8948C91611103C01095812366
:1028B00001C0812B8C939FBF0F90DF91CF911F910F
:1028C0000F910895CF93DF93282F30E0F901E3575C
:1028D000FE4F8491F901ED52FE4FD491F901E75E6C
:1028E000FD4FC491CC2389F081112BDFEC2FF0E058
:1028F000EE0FFF1FE15AFD4FA591B4912C912D23AE
:1029000081E090E021F480E002C080E090E0DF917F
:10291000CF910895FC01818D228D90E0805C9F4FC6
:10292000821B91098F7399270895FC01918D828DE7
:10293000981731F0828DE80FF11D858D90E0089594
:102940008FEF9FEF0895FC01918D828D981761F0B4
:10295000828DDF01A80FB11D5D968C91928D9F5FD6
:102960009F73928F90E008958FEF9FEF089588E511
:1029700096E1892B39F080E090E0892B19F098D10D
:10298000811125C080E090E0892B41F080E090E04B
:10299000892B21F00E94000081111CC080E090E092
:1029A000892B41F080E090E0892B21F00E9400000B
:1029B000811113C080E090E0892BA1F080E090E0CD
:1029C000892B81F00E94000081110AC008950E94A5
:1029D0000000D8CF0E940000E1CF0E940000EACFA3
:1029E0000C9400000895FC01848DDF01A80FB11D37
:1029F000A35ABF4F2C91848D90E001968F73992735
:102A0000848FA689B7892C93A089B1898C91806421
:102A10008C93938D848D981306C00288F389E02DE2
:102A200080818F7D80830895CF93DF93EC01888D23
:102A30008823C1F0EA89FB89808185FD05C0A889CA
:102A4000B9898C9186FD0EC00FB607FCF5CF808149
:102A500085FFF2CFA889B9898C9185FFEDCFCE0192
:102A6000C2DFE8CFDF91CF910895CF92DF92FF923E
:102A70000F931F93CF93DF931F92CDB7DEB76C01F7
:102A800081E0D60158968C9358975B969C915B9702
:102A90005C968C915C97981307C05096ED91FC91D1
:102AA0005197808185FD2DC0F601038D10E00F5FE9
:102AB0001F4F0F731127F02EF601848DF81210C0EE
:102AC0000FB607FCF9CFD6015096ED91FC915197C6
:102AD000808185FFF1CFC601698385DF6981ECCFF5
:102AE000838DE80FF11DE35AFF4F6083D6015B969B
:102AF0000C935B975296ED91FC9153978081806285
:102B00000CC0D6015696ED91FC9157976083509674
:102B1000ED91FC91519780818064808381E090E009
:102B20000F90DF91CF911F910F91FF90DF90CF9089
:102B30000895BF92CF92DF92EF92FF92CF93DF93EF
:102B4000EC016A017B01B22EE889F98982E0808379
:102B5000411581EE58076105710599F060E079E053
:102B60008DE390E0A70196013FD32150310941093F
:102B700051095695479537952795211580E13807D6
:102B800090F0E889F989108260E874E88EE190E0BD
:102B9000A701960129D321503109410951095695C0
:102BA000479537952795EC85FD853083EE85FF8524
:102BB0002083188EEC89FD89B082EA89FB898081A7
:102BC00080618083EA89FB89808188608083EA89CB
:102BD000FB89808180688083EA89FB8980818F7D81
:102BE0008083DF91CF91FF90EF90DF90CF90BF90E7
:102BF00008951F920F920FB60F9211240BB60F92E9
:102C00002F938F939F93EF93FF93E091A605F091FD
:102C1000A7058081E091AC05F091AD0582FD12C061
:102C200090818091AF058F5F8F732091B0058217DF
:102C300051F0E091AF05F0E0EA56FA4F958F80939E
:102C4000AF0501C08081FF91EF919F918F912F91EE
:102C50000F900BBE0F900FBE0F901F9018951F92F4
:102C60000F920FB60F9211240BB60F922F933F9332
:102C70004F935F936F937F938F939F93AF93BF9384
:102C8000EF93FF9386E995E0AEDEFF91EF91BF9160
:102C9000AF919F918F917F916F915F914F913F91F4
:102CA0002F910F900BBE0F900FBE0F901F90189595
:102CB00086E995E02FDE21E0892B09F420E0822FC0
:102CC0000895109299051092980588EE93E0A0E07F
:102CD000B0E080939A0590939B05A0939C05B093D8
:102CE0009D0582E392E0909397058093960585EC8D
:102CF00090E09093A3058093A20584EC90E09093DC
:102D0000A5058093A40580EC90E09093A70580939F
:102D1000A60581EC90E09093A9058093A80582EC2C
:102D200090E09093AB058093AA0586EC90E0909399
:102D3000AD058093AC051092AF051092B0051092CE
:102D4000B1051092B20508950895D6DBFDDF0E940B
:102D5000A001C7EBD4E10E941D022097E1F307DE3A
:102D6000FACFCF92DF92EF92FF920F931F93CF9300
:102D7000DF937C016A01EB0100E010E00C151D05FA
:102D800071F06991D701ED91FC910190F081E02DF6
:102D9000C7011995892B19F00F5F1F4FEFCFC8019D
:102DA000DF91CF911F910F91FF90EF90DF90CF9027
:102DB00008956115710581F0DB010D900020E9F7A0
:102DC000AD0141505109461B570BDC01ED91FC91BF
:102DD0000280F381E02D199480E090E00895DC01F9
:102DE000ED91FC910190F081E02D19946EE372E079
:102DF000E0CF8F929F92AF92BF92DF92EF92FF92BD
:102E00000F931F93CF93DF93CDB7DEB7A1970FB684
:102E1000F894DEBF0FBECDBF7C01F42FD52ECB01C1
:102E200019A2223008F42AE08E010F5D1F4F822E76
:102E3000912CA12CB12C6F2F7D2DA5019401D4D103
:102E4000F22FD32ECA01015011096A3014F4E0E3C5
:102E500001C0E7E3E60FD801EC93232B242B252BAD
:102E600051F7B801C701A5DFA1960FB6F894DEBFF0
:102E70000FBECDBFDF91CF911F910F91FF90EF90CB
:102E8000DF90BF90AF909F908F900895CF92DF9288
:102E9000EF92FF920F931F93CF93DF93EC016A01A0
:102EA0007B012115310579F4E881F9810190F081E8
:102EB000E02D642FDF91CF911F910F91FF90EF9044
:102EC000DF90CF9019942A303105D9F477FF18C0DC
:102ED0006DE285DF8C0144275527BA014C195D0945
:102EE0006E097F092AE0CE0184DF800F911FDF91F8
:102EF000CF911F910F91FF90EF90DF90CF900895A9
:102F00002AE0B701A601CE01DF91CF911F910F9169
:102F1000FF90EF90DF90CF906CCF0F931F93CF93E4
:102F2000DF93EC019A01AB01662757FD6095762F80
:102F3000ADDF8C01CE015ADF800F911FDF91CF9161
:102F40001F910F91089508955058BB27AA270ED0BE
:102F50000DC1FED030F003D120F031F49F3F11F4C9
:102F60001EF4F3C00EF4E095E7FBE9C0E92F0FD1A2
:102F700080F3BA17620773078407950718F071F496
:102F80009EF527C10EF4E0950B2EBA2FA02D0B0154
:102F9000B90190010C01CA01A0011124FF27591B9E
:102FA00099F0593F50F4503E68F11A16F040A22FA4
:102FB000232F342F4427585FF3CF46953795279515
:102FC000A795F0405395C9F77EF41F16BA0B620B14
:102FD000730B840BBAF09150A1F0FF0FBB1F661F5B
:102FE000771F881FC2F70EC0BA0F621F731F841F9E
:102FF00048F4879577956795B795F7959E3F08F0C4
:10300000B3CF9395880F08F09927EE0F9795879582
:10301000089571D008F481E0089504D06894B11146
:10302000D9C00895BCD088F09F5790F0B92F992748
:10303000B751A0F0D1F0660F771F881F991F1AF0C3
:10304000BA95C9F712C0B13081F0C3D0B1E008958C
:10305000C0C0672F782F8827B85F39F0B93FCCF30D
:10306000869577956795B395D9F73EF490958095B9
:10307000709561957F4F8F4F9F4F0895E89409C0D9
:1030800097FB3EF490958095709561957F4F8F4F9B
:103090009F4F9923A9F0F92F96E9BB279395F695B1
:1030A000879577956795B795F111F8CFFAF4BB0F2F
:1030B00011F460FF1BC06F5F7F4F8F4F9F4F16C093
:1030C000882311F096E911C0772321F09EE8872F1D
:1030D000762F05C0662371F096E8862F70E060E0D9
:1030E0002AF09A95660F771F881FDAF7880F969552
:1030F000879597F90895990F0008550FAA0BE0E8F6
:10310000FEEF16161706E807F907C0F012161306A9
:10311000E407F50798F0621B730B840B950B39F4E9
:103120000A2661F0232B242B252B21F408950A264F
:1031300009F4A140A6958FEF811D811D089597F98F
:103140009F6780E870E060E008959FEF80EC08954D
:1031500000240A9416161706180609060895002476
:103160000A9412161306140605060895092E0394F0
:10317000000C11F4882352F0BB0F40F4BF2B11F464
:1031800060FF04C06F5F7F4F8F4F9F4F089557FDC3
:103190009058440F551F59F05F3F71F04795880FC5
:1031A00097FB991F61F09F3F79F08795089512165C
:1031B00013061406551FF2CF4695F1DF08C0161608
:1031C00017061806991FF1CF8695710561050894B9
:1031D0000895E894BB2766277727CB0197F90895D0
:1031E0008ADF08F48FEF0895A1E21A2EAA1BBB1BF9
:1031F000FD010DC0AA1FBB1FEE1FFF1FA217B307C3
:10320000E407F50720F0A21BB30BE40BF50B661FD8
:10321000771F881F991F1A9469F76095709580959C
:1032200090959B01AC01BD01CF010895EE0FFF1FEA
:103230000590F491E02D19940790F691E02D1994E2
:04324000F894FFCF30
:10324400F306060272060840000000805E030000D8
:1032540000008C01B116000000008C01B1160000C2
:1032640000006A033E0313031B032E033D03000007
:1032740000003515B1168A14A314951414150D0AFB
:10328400006E616E00696E66006F7666002E000047
:00000001FF
